{
  "contractName": "ContractTwo",
  "abi": [
    {
      "inputs": [
        {
          "internalType": "uint256",
          "name": "_factor",
          "type": "uint256"
        }
      ],
      "stateMutability": "nonpayable",
      "type": "constructor"
    },
    {
      "inputs": [],
      "name": "Deposit",
      "outputs": [
        {
          "internalType": "uint256",
          "name": "",
          "type": "uint256"
        }
      ],
      "stateMutability": "view",
      "type": "function",
      "constant": true
    },
    {
      "inputs": [],
      "name": "Factor",
      "outputs": [
        {
          "internalType": "uint256",
          "name": "",
          "type": "uint256"
        }
      ],
      "stateMutability": "view",
      "type": "function",
      "constant": true
    },
    {
      "inputs": [
        {
          "internalType": "uint256",
          "name": "_deposit",
          "type": "uint256"
        }
      ],
      "name": "calculateDeposit",
      "outputs": [
        {
          "internalType": "uint256",
          "name": "",
          "type": "uint256"
        }
      ],
      "stateMutability": "view",
      "type": "function",
      "constant": true
    }
  ],
  "bytecode": "0x608060405234801561001057600080fd5b506040516102db3803806102db83398181016040528101906100329190610054565b80600081905550506100a7565b60008151905061004e81610090565b92915050565b60006020828403121561006a5761006961008b565b5b60006100788482850161003f565b91505092915050565b6000819050919050565b600080fd5b61009981610081565b81146100a457600080fd5b50565b610225806100b66000396000f3fe608060405234801561001057600080fd5b50600436106100415760003560e01c80634ec508f9146100465780636185fc1c14610076578063ed21248c14610094575b600080fd5b610060600480360381019061005b91906100e9565b6100b2565b60405161006d9190610125565b60405180910390f35b61007e6100c8565b60405161008b9190610125565b60405180910390f35b61009c6100ce565b6040516100a99190610125565b60405180910390f35b60008054826100c19190610140565b9050919050565b60005481565b60015481565b6000813590506100e3816101d8565b92915050565b6000602082840312156100ff576100fe6101d3565b5b600061010d848285016100d4565b91505092915050565b61011f8161019a565b82525050565b600060208201905061013a6000830184610116565b92915050565b600061014b8261019a565b91506101568361019a565b9250817fffffffffffffffffffffffffffffffffffffffffffffffffffffffffffffffff048311821515161561018f5761018e6101a4565b5b828202905092915050565b6000819050919050565b7f4e487b7100000000000000000000000000000000000000000000000000000000600052601160045260246000fd5b600080fd5b6101e18161019a565b81146101ec57600080fd5b5056fea2646970667358221220a2b697e0a7461fc89d04904ff28784807a3a591f0522f1ee40dda4f68836f1a464736f6c63430008060033",
  "immutableReferences": {},
  "source": "// SPDX-License-Identifier: MIT\npragma solidity 0.8.6;\n\ncontract ContractTwo {\n\n    uint public Factor;\n    uint public Deposit;\n\n    constructor(uint _factor) {\n        Factor = _factor;\n    }\n\n    function calculateDeposit(uint _deposit) public view returns(uint) {\n        return _deposit * Factor;\n    }\n}",
  "sourcePath": "/Volumes/Disk D/My Documents/iOS Development/Bitbucket/SOLIDITY/ProxyContract/contracts/ContractTwo.sol",
  "compiler": {
    "name": "solc",
    "version": "0.8.6+commit.11564f7e.Emscripten.clang"
  },
  "schemaVersion": "3.4.1",
  "updatedAt": "2021-08-02T18:02:44.427Z",
  "networkType": "ethereum",
  "devdoc": {
    "kind": "dev",
    "methods": {},
    "version": 1
  },
  "userdoc": {
    "kind": "user",
    "methods": {},
    "version": 1
  }
}