{
  "contractName": "Deposits",
  "abi": [
    {
      "inputs": [],
      "stateMutability": "nonpayable",
      "type": "constructor"
    },
    {
      "inputs": [
        {
          "internalType": "address",
          "name": "",
          "type": "address"
        }
      ],
      "name": "Users",
      "outputs": [
        {
          "internalType": "uint256",
          "name": "deposit",
          "type": "uint256"
        }
      ],
      "stateMutability": "view",
      "type": "function",
      "constant": true
    },
    {
      "inputs": [
        {
          "internalType": "address",
          "name": "_user_address",
          "type": "address"
        }
      ],
      "name": "getUserDeposit",
      "outputs": [
        {
          "internalType": "uint256",
          "name": "",
          "type": "uint256"
        }
      ],
      "stateMutability": "view",
      "type": "function",
      "constant": true
    },
    {
      "inputs": [
        {
          "internalType": "address",
          "name": "_user_address",
          "type": "address"
        },
        {
          "internalType": "uint256",
          "name": "_deposit",
          "type": "uint256"
        }
      ],
      "name": "addDeposit",
      "outputs": [],
      "stateMutability": "nonpayable",
      "type": "function"
    },
    {
      "inputs": [
        {
          "internalType": "address",
          "name": "_user_address",
          "type": "address"
        },
        {
          "internalType": "uint256",
          "name": "_deposit",
          "type": "uint256"
        }
      ],
      "name": "getDeposit",
      "outputs": [],
      "stateMutability": "nonpayable",
      "type": "function"
    }
  ],
  "bytecode": "0x608060405234801561001057600080fd5b506103c1806100206000396000f3fe608060405234801561001057600080fd5b506004361061004c5760003560e01c80632726b5061461005157806333026bb61461006d57806399b956a014610089578063c084b10b146100b9575b600080fd5b61006b6004803603810190610066919061024f565b6100e9565b005b6100876004803603810190610082919061024f565b610145565b005b6100a3600480360381019061009e9190610222565b61018f565b6040516100b0919061029e565b60405180910390f35b6100d360048036038101906100ce9190610222565b6101ad565b6040516100e0919061029e565b60405180910390f35b806000808473ffffffffffffffffffffffffffffffffffffffff1673ffffffffffffffffffffffffffffffffffffffff168152602001908152602001600020600001600082825461013a91906102b9565b925050819055505050565b806000808473ffffffffffffffffffffffffffffffffffffffff1673ffffffffffffffffffffffffffffffffffffffff168152602001908152602001600020600001819055505050565b60006020528060005260406000206000915090508060000154905081565b60008060008373ffffffffffffffffffffffffffffffffffffffff1673ffffffffffffffffffffffffffffffffffffffff168152602001908152602001600020600001549050919050565b6000813590506102078161035d565b92915050565b60008135905061021c81610374565b92915050565b60006020828403121561023857610237610358565b5b6000610246848285016101f8565b91505092915050565b6000806040838503121561026657610265610358565b5b6000610274858286016101f8565b92505060206102858582860161020d565b9150509250929050565b6102988161031f565b82525050565b60006020820190506102b3600083018461028f565b92915050565b60006102c48261031f565b91506102cf8361031f565b9250828210156102e2576102e1610329565b5b828203905092915050565b60006102f8826102ff565b9050919050565b600073ffffffffffffffffffffffffffffffffffffffff82169050919050565b6000819050919050565b7f4e487b7100000000000000000000000000000000000000000000000000000000600052601160045260246000fd5b600080fd5b610366816102ed565b811461037157600080fd5b50565b61037d8161031f565b811461038857600080fd5b5056fea2646970667358221220a07110a232fba7e07275e909fa45efb2a8f65fe46b27923be4945c9cf0a7409764736f6c63430008060033",
  "immutableReferences": {},
  "source": "// SPDX-License-Identifier: MIT\npragma solidity 0.8.6;\n\ncontract Deposits {\n    \n    struct user {\n        uint256 deposit;\n    }\n\n    mapping(address => user) public Users;\n\n    constructor() {}\n\n    function getUserDeposit(address _user_address) public view returns (uint256) {\n        return Users[_user_address].deposit;\n    }\n    \n    function addDeposit(address _user_address, uint _deposit) public {\n        Users[_user_address].deposit = _deposit;\n    }\n\n    function getDeposit(address _user_address, uint _deposit) public {\n        Users[_user_address].deposit -= _deposit;\n    }\n}\n",
  "sourcePath": "/Volumes/Disk D/My Documents/iOS Development/Bitbucket/SOLIDITY/ProxyContract/contracts/Deposits.sol",
  "compiler": {
    "name": "solc",
    "version": "0.8.6+commit.11564f7e.Emscripten.clang"
  },
  "schemaVersion": "3.4.1",
  "updatedAt": "2021-08-02T18:02:44.418Z",
  "networkType": "ethereum",
  "devdoc": {
    "kind": "dev",
    "methods": {},
    "version": 1
  },
  "userdoc": {
    "kind": "user",
    "methods": {},
    "version": 1
  }
}