{
  "contractName": "ProxyContract",
  "abi": [
    {
      "inputs": [],
      "stateMutability": "nonpayable",
      "type": "constructor"
    },
    {
      "inputs": [],
      "name": "contractAddress",
      "outputs": [
        {
          "internalType": "address",
          "name": "",
          "type": "address"
        }
      ],
      "stateMutability": "view",
      "type": "function",
      "constant": true
    },
    {
      "inputs": [],
      "name": "depositAddress",
      "outputs": [
        {
          "internalType": "address",
          "name": "",
          "type": "address"
        }
      ],
      "stateMutability": "view",
      "type": "function",
      "constant": true
    },
    {
      "inputs": [
        {
          "internalType": "address",
          "name": "_contract_address",
          "type": "address"
        },
        {
          "internalType": "address",
          "name": "_deposit_address",
          "type": "address"
        }
      ],
      "name": "setContractDepositAddress",
      "outputs": [],
      "stateMutability": "nonpayable",
      "type": "function"
    },
    {
      "inputs": [
        {
          "internalType": "uint256",
          "name": "_deposit",
          "type": "uint256"
        }
      ],
      "name": "setDeposit",
      "outputs": [],
      "stateMutability": "nonpayable",
      "type": "function"
    },
    {
      "inputs": [
        {
          "internalType": "uint256",
          "name": "_deposit",
          "type": "uint256"
        }
      ],
      "name": "getDeposit",
      "outputs": [],
      "stateMutability": "nonpayable",
      "type": "function"
    }
  ],
  "bytecode": "0x608060405234801561001057600080fd5b50610589806100206000396000f3fe608060405234801561001057600080fd5b50600436106100575760003560e01c806328f833b71461005c57806383f75b3f1461007a5780639f9fb96814610096578063f5bade66146100b2578063f6b4dfb4146100ce575b600080fd5b6100646100ec565b6040516100719190610485565b60405180910390f35b610094600480360381019061008f91906103cd565b610112565b005b6100b060048036038101906100ab919061040d565b610197565b005b6100cc60048036038101906100c7919061040d565b610229565b005b6100d661036a565b6040516100e39190610485565b60405180910390f35b600160009054906101000a900473ffffffffffffffffffffffffffffffffffffffff1681565b816000806101000a81548173ffffffffffffffffffffffffffffffffffffffff021916908373ffffffffffffffffffffffffffffffffffffffff16021790555080600160006101000a81548173ffffffffffffffffffffffffffffffffffffffff021916908373ffffffffffffffffffffffffffffffffffffffff1602179055505050565b600160009054906101000a900473ffffffffffffffffffffffffffffffffffffffff1673ffffffffffffffffffffffffffffffffffffffff16632726b50633836040518363ffffffff1660e01b81526004016101f49291906104a0565b600060405180830381600087803b15801561020e57600080fd5b505af1158015610222573d6000803e3d6000fd5b5050505050565b60008060009054906101000a900473ffffffffffffffffffffffffffffffffffffffff1673ffffffffffffffffffffffffffffffffffffffff16634ec508f9836040518263ffffffff1660e01b815260040161028591906104c9565b60206040518083038186803b15801561029d57600080fd5b505afa1580156102b1573d6000803e3d6000fd5b505050506040513d601f19601f820116820180604052508101906102d5919061043a565b9050600160009054906101000a900473ffffffffffffffffffffffffffffffffffffffff1673ffffffffffffffffffffffffffffffffffffffff166333026bb633836040518363ffffffff1660e01b81526004016103349291906104a0565b600060405180830381600087803b15801561034e57600080fd5b505af1158015610362573d6000803e3d6000fd5b505050505050565b60008054906101000a900473ffffffffffffffffffffffffffffffffffffffff1681565b60008135905061039d81610525565b92915050565b6000813590506103b28161053c565b92915050565b6000815190506103c78161053c565b92915050565b600080604083850312156103e4576103e3610520565b5b60006103f28582860161038e565b92505060206104038582860161038e565b9150509250929050565b60006020828403121561042357610422610520565b5b6000610431848285016103a3565b91505092915050565b6000602082840312156104505761044f610520565b5b600061045e848285016103b8565b91505092915050565b610470816104e4565b82525050565b61047f81610516565b82525050565b600060208201905061049a6000830184610467565b92915050565b60006040820190506104b56000830185610467565b6104c26020830184610476565b9392505050565b60006020820190506104de6000830184610476565b92915050565b60006104ef826104f6565b9050919050565b600073ffffffffffffffffffffffffffffffffffffffff82169050919050565b6000819050919050565b600080fd5b61052e816104e4565b811461053957600080fd5b50565b61054581610516565b811461055057600080fd5b5056fea264697066735822122096fbefc32ad7547f877cceb54c35568efdfd3d4d2edeab728810bb16447ca12464736f6c63430008060033",
  "immutableReferences": {},
  "source": "// SPDX-License-Identifier: MIT\npragma solidity 0.8.6;\n\nimport './iContract.sol';\nimport './Deposits.sol';\n\ncontract ProxyContract {\n\n    address public contractAddress;\n    address public depositAddress;\n\n    constructor() {\n\n    }\n\n    function setContractDepositAddress(address _contract_address, address _deposit_address) public {\n        contractAddress = _contract_address;\n        depositAddress = _deposit_address;\n    }\n\n    function setDeposit(uint _deposit) public {\n        uint _calculate_deposit = iContract(contractAddress).calculateDeposit(_deposit);\n        Deposits(depositAddress).addDeposit(msg.sender, _calculate_deposit);\n    }\n\n    function getDeposit(uint _deposit) public {\n        Deposits(depositAddress).getDeposit(msg.sender, _deposit);\n    }\n}\n",
  "sourcePath": "/Volumes/Disk D/My Documents/iOS Development/Bitbucket/SOLIDITY/ProxyContract/contracts/ProxyContract.sol",
  "compiler": {
    "name": "solc",
    "version": "0.8.6+commit.11564f7e.Emscripten.clang"
  },
  "schemaVersion": "3.4.1",
  "updatedAt": "2021-08-02T18:02:44.431Z",
  "networkType": "ethereum",
  "devdoc": {
    "kind": "dev",
    "methods": {},
    "version": 1
  },
  "userdoc": {
    "kind": "user",
    "methods": {},
    "version": 1
  }
}